:020000040800F2
:10000000005000208D2B00084D27000855270008C0
:100010005D270008652700086D2700080000000024
:10002000000000000000000000000000752700082C
:1000300081270008000000008D270008992700088C
:10004000D52B0008D52B0008D52B0008D52B000890
:10005000D52B0008D52B0008D52B0008D52B000880
:10006000D52B0008D52B0008D52B0008D52B000870
:10007000D52B0008D52B0008D52B0008D52B000860
:10008000D52B0008D52B0008D52B0008D52B000850
:10009000D52B0008D52B0008D52B0008D52B000840
:1000A000D52B0008D52B0008D52B0008D52B000830
:1000B000D52B0008D52B0008A5270008D52B000854
:1000C000D52B0008D52B0008D52B0008D52B000810
:1000D000D52B0008B9270008CD270008E127000824
:1000E000D52B0008D52B0008D52B000800000000F8
:1000F0000000000000000000000000000000000000
:0C01000000000000000000005FF808F1A3
:1001100010B5054C237833B9044B13B10448AFF341
:1001200000800123237010BDF001002000000000BA
:10013000CC9F000808B5034B1BB103490348AFF33C
:10014000008008BD00000000F4010020CC9F0008E2
:10015000034613F8012B002AFBD1181A0138704707
:1001600081F0004102E000BF83F0004330B54FEA68
:1001700041044FEA430594EA050F08BF90EA020FD5
:100180001FBF54EA000C55EA020C7FEA645C7FEA68
:10019000655C00F0E2804FEA5454D4EB5555B8BF8B
:1001A0006D420CDD2C4480EA020281EA030382EAFC
:1001B000000083EA010180EA020281EA0303362D8E
:1001C00088BF30BD11F0004F4FEA01314FF4801C61
:1001D0004CEA113102D0404261EB410113F0004F73
:1001E0004FEA03334CEA133302D0524263EB43032A
:1001F00094EA050F00F0A780A4F10104D5F1200EC8
:100200000DDB02FA0EFC22FA05F2801841F1000122
:1002100003FA0EF2801843FA05F359410EE0A5F1F6
:1002200020050EF1200E012A03FA0EFC28BF4CF027
:10023000020C43FA05F3C01851EBE37101F00045DD
:1002400007D54FF0000EDCF1000C7EEB00006EEBEA
:100250000101B1F5801F1BD3B1F5001F0CD3490874
:100260005FEA30004FEA3C0C04F101044FEA4452CB
:1002700012F5800F80F09A80BCF1004F08BF5FEA52
:10028000500C50F1000041EB045141EA050130BD32
:100290005FEA4C0C404141EB0101013C28BFB1F544
:1002A000801FE9D291F0000F04BF01460020B1FA8F
:1002B00081F308BF2033A3F10B03B3F120020CDA62
:1002C0000C3208DD02F1140CC2F10C0201FA0CF040
:1002D00021FA02F10CE002F11402D8BFC2F1200CA5
:1002E00001FA02F120FA0CFCDCBF41EA0C0190405B
:1002F000E41AA2BF01EB0451294330BD6FEA0404A4
:100300001F3C1CDA0C340EDC04F11404C4F120028E
:1003100020FA04F001FA02F340EA030021FA04F3A0
:1003200045EA030130BDC4F10C04C4F1200220FAF7
:1003300002F001FA04F340EA0300294630BD21FA35
:1003400004F0294630BD94F0000F83F4801306BFFB
:1003500081F480110134013D4EE77FEA645C18BFEF
:100360007FEA655C29D094EA050F08BF90EA020F86
:1003700005D054EA000C04BF1946104630BD91EA7E
:10038000030F1EBF0021002030BD5FEA545C05D181
:100390004000494128BF41F0004130BD14F58004C0
:1003A0003CBF01F5801130BD01F0004545F0FE4134
:1003B00041F470014FF0000030BD7FEA645C1ABF69
:1003C000194610467FEA655C1CBF0B46024650EAA0
:1003D000013406BF52EA033591EA030F41F40021CC
:1003E00030BD00BF90F0000F04BF0021704730B552
:1003F0004FF4806404F132044FF000054FF0000127
:1004000050E700BF90F0000F04BF0021704730B5E7
:100410004FF4806404F1320410F0004548BF4042BC
:100420004FF000013EE700BF42004FEAE2014FEA11
:1004300031014FEA02701FBF12F07F4393F07F4FEC
:1004400081F06051704732F07F4208BF704793F0EF
:100450007F4F04BF41F40021704730B54FF4607402
:1004600001F0004521F000411CE700BF50EA010205
:1004700008BF704730B54FF000050AE050EA0102AE
:1004800008BF704730B511F0004502D5404261EB1E
:1004900041014FF4806404F132045FEA915C3FF45F
:1004A000D8AE4FF003025FEADC0C18BF03325FEAFC
:1004B000DC0C18BF033202EBDC02C2F1200300FAAD
:1004C00003FC20FA02F001FA03FE40EA0E0021FAD2
:1004D00002F11444BDE600BF70B54FF0FF0C4CF4C0
:1004E000E06C1CEA11541DBF1CEA135594EA0C0F72
:1004F00095EA0C0F00F0DEF82C4481EA030621EAAD
:100500004C5123EA4C5350EA013518BF52EA0335E7
:1005100041F4801143F4801338D0A0FB02CE4FF099
:100520000005E1FB02E506F00042E0FB03E54FF0C9
:100530000006E1FB03569CF0000F18BF4EF0010EC1
:10054000A4F1FF04B6F5007F64F5407404D25FEABD
:100550004E0E6D4146EB060642EAC62141EA555170
:100560004FEAC52040EA5E504FEACE2EB4F1FD0CB2
:1005700088BFBCF5E06F1ED8BEF1004F08BF5FEA30
:10058000500E50F1000041EB045170BD06F00046E2
:1005900046EA010140EA020081EA0301B4EB5C048F
:1005A000C2BFD4EB0C0541EA045170BD41F4801187
:1005B0004FF0000E013C00F3AB8014F1360FDEBFAC
:1005C000002001F0004170BDC4F10004203C35DA88
:1005D0000C341BDC04F11404C4F1200500FA05F30B
:1005E00020FA04F001FA05F240EA020001F00042AC
:1005F00021F0004110EBD37021FA04F642EB060122
:100600005EEA430E08BF20EAD37070BDC4F10C044B
:10061000C4F1200500FA04F320FA05F001FA04F20F
:1006200040EA020001F0004110EBD37041F10001FB
:100630005EEA430E08BF20EAD37070BDC4F1200506
:1006400000FA05F24EEA020E20FA04F301FA05F26E
:1006500043EA020321FA04F001F0004121FA04F216
:1006600020EA020000EBD3705EEA430E08BF20EAE6
:10067000D37070BD94F0000F0FD101F00046400020
:1006800041EB010111F4801F08BF013CF7D041EAA2
:10069000060195F0000F18BF704703F000465200A6
:1006A00043EB030313F4801F08BF013DF7D043EA77
:1006B0000603704794EA0C0F0CEA135518BF95EA2D
:1006C0000C0F0CD050EA410618BF52EA4306D1D1B4
:1006D00081EA030101F000414FF0000070BD50EAD3
:1006E000410606BF1046194652EA430619D094EA5D
:1006F0000C0F02D150EA013613D195EA0C0F05D147
:1007000052EA03361CBF104619460AD181EA03019A
:1007100001F0004141F0FE4141F470014FF0000052
:1007200070BD41F0FE4141F4780170BD70B54FF0ED
:10073000FF0C4CF4E06C1CEA11541DBF1CEA13556D
:1007400094EA0C0F95EA0C0F00F0A7F8A4EB05044F
:1007500081EA030E52EA03354FEA013100F0888046
:100760004FEA03334FF0805545EA131343EA12630F
:100770004FEA022245EA111545EA10654FEA0026C4
:100780000EF000419D4208BF964244F1FD0404F57D
:10079000407402D25B084FEA3202B61A65EB0305D9
:1007A0005B084FEA32024FF480104FF4002CB6EB96
:1007B000020E75EB030E22BFB61A754640EA0C0016
:1007C0005B084FEA3202B6EB020E75EB030E22BF56
:1007D000B61A754640EA5C005B084FEA3202B6EB97
:1007E000020E75EB030E22BFB61A754640EA9C0056
:1007F0005B084FEA3202B6EB020E75EB030E22BF26
:10080000B61A754640EADC0055EA060E18D04FEAE3
:10081000051545EA16754FEA06164FEAC30343EA83
:1008200052734FEAC2025FEA1C1CC0D111F4801F50
:100830000BD141EA00014FF000004FF0004CB6E749
:1008400011F4801F04BF01430020B4F1FD0C88BFE8
:10085000BCF5E06F3FF6AFAEB5EB030C04BFB6EBF3
:10086000020C5FEA500C50F1000041EB045170BDE6
:100870000EF0004E4EEA113114EB5C04C2BFD4EB13
:100880000C0541EA045170BD41F480114FF0000E97
:10089000013C90E645EA060E8DE60CEA135594EA13
:1008A0000C0F08BF95EA0C0F3FF43BAF94EA0C0F16
:1008B0000AD150EA01347FF434AF95EA0C0F7FF48B
:1008C00025AF104619462CE795EA0C0F06D152EADF
:1008D00003353FF4FDAE1046194622E750EA4106C3
:1008E00018BF52EA43067FF4C5AE50EA41047FF4D4
:1008F0000DAF52EA43057FF4EBAE12E74FF0FF3C39
:1009000006E000BF4FF0010C02E000BF4FF0010C09
:100910004DF804CD4FEA410C7FEA6C5C4FEA430C82
:1009200018BF7FEA6C5C1BD001B050EA410C0CBFD1
:1009300052EA430C91EA030F02BF90EA020F002033
:10094000704710F1000F91EA030F58BF994208BF9A
:1009500090422CBFD8176FEAE37040F00100704757
:100960004FEA410C7FEA6C5C02D150EA013C07D1AE
:100970004FEA430C7FEA6C5CD6D152EA033CD3D0F9
:100980005DF8040B704700BF8446104662468C46F3
:100990001946634600E000BF01B5FFF7B7FF002826
:1009A00048BF10F1000F01BD4DF808EDFFF7F4FF4F
:1009B0000CBF012000205DF808FB00BF4DF808EDDA
:1009C000FFF7EAFF34BF012000205DF808FB00BFFD
:1009D0004DF808EDFFF7E0FF94BF012000205DF81F
:1009E00008FB00BF4DF808EDFFF7CEFF94BF0120D4
:1009F00000205DF808FB00BF4DF808EDFFF7C4FFCD
:100A000034BF012000205DF808FB00BF4FEA410C15
:100A10007FEA6C5C02D150EA013C0AD14FEA430CF8
:100A20007FEA6C5C02D152EA033C02D14FF0000035
:100A300070474FF0010070474FEA410212F5001273
:100A400015D211D56FF47873B3EB625212D94FEA15
:100A5000C12343F0004343EA505311F0004F23FAFF
:100A600002F018BF404270474FF00000704750EA54
:100A7000013005D111F0004008BF6FF00040704711
:100A80004FF00000704700BF4A0011D212F500126B
:100A900011D20DD56FF47873B3EB62520ED44FEAD6
:100AA000C12343F0004343EA505323FA02F0704756
:100AB0004FF00000704750EA013002D14FF0FF3094
:100AC00070474FF0000070474FEA4102B2F1E04337
:100AD00024BFB3F5001CDCF1FE5C0DD901F0004C25
:100AE0004FEAC0024CEA5070B2F1004F40EB830075
:100AF00008BF20F00100704711F0804F21D113F1A1
:100B00003872BCBF01F00040704741F480114FEAD9
:100B10005252C2F11802C2F1200C10FA0CF320FA62
:100B200002F018BF40F001004FEAC1234FEAD3237F
:100B300003FA0CFC40EA0C0023FA02F34FEA4303E9
:100B4000CCE77FEA625307D150EA01331EBF4FF072
:100B5000FE4040F44000704701F0004040F0FE408D
:100B600040F40000704700BF80F0004002E000BF8A
:100B700081F0004142001FBF5FEA410392EA030F88
:100B80007FEA226C7FEA236C6AD04FEA1262D2EBD2
:100B90001363C1BFD218414048404140B8BF5B42D7
:100BA000192B88BF704710F0004F40F4000020F070
:100BB0007F4018BF404211F0004F41F4000121F086
:100BC0007F4118BF494292EA030F3FD0A2F10102D0
:100BD00041FA03FC10EB0C00C3F1200301FA03F10E
:100BE00000F0004302D5494260EB4000B0F5000F31
:100BF00013D3B0F1807F06D340084FEA310102F1F0
:100C00000102FE2A51D2B1F1004F40EBC25008BFA1
:100C100020F0010040EA03007047490040EB00006B
:100C2000013A28BFB0F5000FEDD2B0FA80FCACF16C
:100C3000080CB2EB0C0200FA0CF0AABF00EBC25099
:100C400052421843BCBFD0401843704792F0000F87
:100C500081F4000106BF80F400000132013BB5E7DA
:100C60004FEA41037FEA226C18BF7FEA236C21D050
:100C700092EA030F04D092F0000F08BF08467047B5
:100C800090EA010F1CBF0020704712F07F4F04D183
:100C9000400028BF40F00040704712F100723CBF96
:100CA00000F50000704700F0004343F0FE4040F4C0
:100CB000000070477FEA226216BF08467FEA23637E
:100CC0000146420206BF5FEA412390EA010F40F469
:100CD000800070474FF0000304E000BF10F00043B5
:100CE00048BF40425FEA000C08BF704743F096439C
:100CF00001464FF000001CE050EA010208BF7047B7
:100D00004FF000030AE000BF50EA010208BF70473D
:100D100011F0004302D5404261EB41015FEA010C52
:100D200002BF84460146002043F0B64308BFA3F14A
:100D30008053A3F50003BCFA8CF2083AA3EBC2532C
:100D400010DB01FA02FC634400FA02FCC2F120024B
:100D5000BCF1004F20FA02F243EB020008BF20F082
:100D60000100704702F1200201FA02FCC2F12002E8
:100D700050EA4C0021FA02F243EB020008BF20EADD
:100D8000DC7070474FF0FF0C1CEAD0521EBF1CEA0B
:100D9000D15392EA0C0F93EA0C0F6FD01A4480EAF9
:100DA000010C400218BF5FEA41211ED04FF00063E2
:100DB00043EA501043EA5111A0FB01310CF000400E
:100DC000B1F5000F3EBF490041EAD3715B0040EA34
:100DD000010062F17F02FD2A1DD8B3F1004F40EB04
:100DE000C25008BF20F00100704790F0000F0CF0D7
:100DF000004C08BF49024CEA502040EA51207F3A9B
:100E0000C2BFD2F1FF0340EAC250704740F4000075
:100E10004FF00003013A5DDC12F1190FDCBF00F066
:100E200000407047C2F10002410021FA02F1C2F114
:100E3000200200FA02FC5FEA310040F1000053EAB0
:100E40004C0308BF20EADC70704792F0000F00F0FE
:100E5000004C02BF400010F4000F013AF9D040EA04
:100E60000C0093F0000F01F0004C02BF490011F498
:100E7000000F013BF9D041EA0C018FE70CEAD15396
:100E800092EA0C0F18BF93EA0C0F0AD030F0004C16
:100E900018BF31F0004CD8D180EA010000F00040CA
:100EA000704790F0000F17BF90F0004F084691F088
:100EB000000F91F0004F14D092EA0C0F01D14202C2
:100EC0000FD193EA0C0F03D14B0218BF084608D18B
:100ED00080EA010000F0004040F0FE4040F40000D5
:100EE000704740F0FE4040F4400070474FF0FF0C68
:100EF0001CEAD0521EBF1CEAD15392EA0C0F93EAAF
:100F00000C0F69D0A2EB030280EA010C49024FEA00
:100F1000402037D04FF0805343EA111143EA1013B9
:100F20000CF000408B4238BF5B0042F17D024FF471
:100F3000000C8B4224BF5B1A40EA0C00B3EB510F4C
:100F400024BFA3EB510340EA5C00B3EB910F24BF35
:100F5000A3EB910340EA9C00B3EBD10F24BFA3EBBA
:100F6000D10340EADC001B0118BF5FEA1C1CE0D182
:100F7000FD2A3FF650AF8B4240EBC25008BF20F035
:100F8000010070470CF0004C4CEA50207F32C2BF89
:100F9000D2F1FF0340EAC250704740F400004FF026
:100FA0000003013A37E792F0000F00F0004C02BF57
:100FB000400010F4000F013AF9D040EA0C0093F021
:100FC000000F01F0004C02BF490011F4000F013B7B
:100FD000F9D041EA0C0195E70CEAD15392EA0C0FE3
:100FE00008D142027FF47DAF93EA0C0F7FF470AF1B
:100FF000084676E793EA0C0F04D14B023FF44CAF5E
:1010000008466EE730F0004C18BF31F0004CCAD1F2
:1010100030F000427FF45CAF31F000437FF43CAF2E
:101020005FE700BF4FF0FF3C06E000BF4FF0010C50
:1010300002E000BF4FF0010C4DF804CD4FEA400232
:101040004FEA41037FEA226C18BF7FEA236C11D07C
:1010500001B052EA530C18BF90EA010F58BFB2EB2F
:10106000030088BFC81738BF6FEAE17018BF40F0AF
:10107000010070477FEA226C02D15FEA402C05D163
:101080007FEA236CE4D15FEA412CE1D05DF8040BE8
:10109000704700BF844608466146FFE70FB5FFF77B
:1010A000C9FF002848BF10F1000F0FBD4DF808ED33
:1010B000FFF7F4FF0CBF012000205DF808FB00BF24
:1010C0004DF808EDFFF7EAFF34BF012000205DF87E
:1010D00008FB00BF4DF808EDFFF7E0FF94BF0120CB
:1010E00000205DF808FB00BF4DF808EDFFF7D2FFC8
:1010F00094BF012000205DF808FB00BF4DF808ED0B
:10110000FFF7C8FF34BF012000205DF808FB00BFD7
:101110004FEA4002B2F1FE4F0FD34FF09E03B3EB04
:1011200012620DD94FEA002343F0004310F0004F44
:1011300023FA02F018BF404270474FF0000070479A
:1011400012F1610F01D1420205D110F0004008BF39
:101150006FF0004070474FF00000704742000ED221
:10116000B2F1FE4F0BD34FF09E03B3EB126209D4E2
:101170004FEA002343F0004323FA02F070474FF098
:101180000000704712F1610F01D1420202D14FF00D
:10119000FF3070474FF00000704700BF38B50022A5
:1011A000002304460D46FFF709FC28B920462946CE
:1011B000BDE8384000F00AB8204605F1004100F0D3
:1011C00005F8404261EB410138BD00BFD0B50022B7
:1011D0000B4B06460F46FFF77FF9FFF755FC044619
:1011E000FFF700F90022074BFFF776F902460B469E
:1011F00030463946FEF7B8FFFFF746FC2146D0BD22
:101200000000F03D0000F04180B485B000AF03461F
:10121000FB710023FB6023E0FA79FB6842FA03F3D9
:10122000DBB203F00103FB72FB7A9AB2114B1B880D
:1012300053409BB203F001033B810E4B1B885B08BC
:101240009AB20C4B1A803B89002B06D0094B1A88A6
:10125000094B53409AB2074B1A80FB680133FB607D
:10126000FB68072BD8DD00BF00BF1437BD4680BC2C
:10127000704700BF140300200884FFFF80B586B0CC
:1012800000AF78600B46FB701346BB707868FEF7C2
:101290005FFF03463B6100237B6119E07A693B698C
:1012A0009A4204DA7B697A6813441B7800E02023B1
:1012B000FB73184B1B885A1C91B2164A11801A46B0
:1012C000FB7B5B00D9B2144B99547B6901337B6182
:1012D0007B69052BE2DD97F903305B005BB243F0DD
:1012E00060035AB2BB78002B14BF01230023DBB28A
:1012F0005BB2134359B2074B1B885A1C90B2054A84
:1013000010801A46C9B2044B995400BF1837BD4625
:1013100080BD00BF0C0300200C020020F0B599B086
:101320000AAF78613961FA60FB724FF000017869A9
:10133000FFF7DAFE0346002B01D04E2300E05323D3
:1013400087F837304FF000013869FFF7CDFE0346CC
:10135000002B01D0452300E0572387F836304FF0AB
:1013600000017869FFF7ACFE0346002B03D07B69D0
:1013700083F0004300E07B693B634FF00001386974
:10138000FFF79EFE0346002B03D03B6983F000432A
:1013900000E03B69FB622A49386BFFF7A7FD034673
:1013A0001846FFF7B5FE0346BB62B86AFFF796FC26
:1013B000034623491846FFF7E5FC03461946386BF8
:1013C000FFF7D6FB03467B621D49F86AFFF78EFDE7
:1013D00003461846FFF79CFE03463B62386AFFF758
:1013E0007DFC034616491846FFF7CCFC0346194618
:1013F000F86AFFF7BDFB0346FB61786AFFF714F854
:1014000004460D4697F83760FB7A7B60F869FFF772
:101410000BF802460B4697F836100891CDE90623E3
:101420003B6A04937B6803930296CDE90045BA6A50
:101430000449F86805F08EFF00BF3C37BD46F0BD9B
:101440000000C842E89F0008B0B5B6B004AFF8602D
:10145000B9607A603B60884B00221A80874B4FF658
:10146000FF721A80864B00221A80864B00221A7067
:10147000854B00221A70854B01221A70844B002282
:101480001A700023C7F8C4300EE07B4B1B885A1C2F
:1014900091B2794A11801A467E4B7E219954D7F831
:1014A000C4300133C7F8C430D7F8C4309F2BECDD0B
:1014B000002200217848FFF7E1FE784B9B7B002259
:1014C00019467748FFF7DAFE002201217548FFF739
:1014D000D5FE012201217448FFF7D0FE664B1B8820
:1014E0005A1C91B2644A11801A466A4B03219954DE
:1014F000614B1B885A1C91B25F4A11801A46654B9A
:10150000F0219954654B1B7C07F11002B968F8680B
:10151000FFF704FF3868FFF7FBFD0346634A82FBD1
:1015200003121A441112DA178A1A4FF4B47101FB2C
:1015300002F29B1AC7F8C030D7F8C030002B05DA8A
:10154000D7F8C03003F5B473C7F8C0307868FFF738
:10155000DFFD0346C7F8B030504B5B7C1D46D7F823
:10156000C030D7F8B02007F1100107F14400504C0B
:101570000294019200932B460A464E4905F0EAFE7A
:1015800007F144031846FEF7E3FD0346C7F8AC3005
:101590000023C7F8BC3013E0374B1B885A1C91B2AC
:1015A000354A1180194607F14402D7F8BC3013447C
:1015B0001A78384B5A54D7F8BC300133C7F8BC30CE
:1015C000D7F8BC20D7F8AC309A42E5DBA023C7F8A7
:1015D000B8300CE02F4AD7F8B83013441B781846BF
:1015E000FFF712FED7F8B8300133C7F8B830224BF6
:1015F0001B881A46D7F8B8309342EBDB1F4B1B8889
:10160000DB43A7F8AA301C4B1B885A1C91B21A4A1C
:1016100011801A46B7F8AA30D9B21E4B9954B7F8C0
:10162000AA301B0A99B2144B1B885A1C90B2124A5A
:1016300010801A46C9B2174B99540023C7F8B4302A
:101640000EE00D4B1B885A1C91B20B4A11801A46B2
:10165000104B7E219954D7F8B4300133C7F8B43019
:10166000D7F8B430092BECDD134B01221A7000BF00
:10167000C837BD46B0BD00BF0C03002014030020D6
:101680000E030020100300201103002000000020A2
:10169000130300200C02002004A0000818030020FF
:1016A0001C0300200CA0000814A00008B7600BB6B3
:1016B0002A0300201CA000081203002080B483B07D
:1016C00000AF3B4B1B78002B01D1FF236AE0394B65
:1016D0001B78002B0CD0374B00221A70364B1B782E
:1016E00083F00103DAB2344B1A70334B1B7859E0A4
:1016F000324B1A88324B1B889A4204D32C4B00225F
:101700001A70FF234EE02D4B1B881A462D4B9B5C15
:10171000FB71FB792C4A12781341DBB203F0010311
:10172000BB71FB797E2B0CBF01230023DBB27B71E5
:10173000254B1B780133DAB2234B1A70224B1B78EE
:10174000072B08D9204B00221A701C4B1B88013331
:101750009AB21A4B1A807B79002B14D1BB79002BDB
:101760000DD01A4B1B780133DAB2184B1A70174B95
:101770001B78052B0AD10F4B01221A7006E0134B80
:1017800000221A7002E0114B00221A70BB79002B64
:1017900006D1094B1B7883F00103DAB2064B1A70AD
:1017A000054B1B7818460C37BD4680BC704700BF00
:1017B0001203002013030020000000200E0300206D
:1017C0000C0300200C020020100300201103002055
:1017D00080B400AF044B00221A70044B00221A8020
:1017E00000BFBD4680BC7047120300200C030020E0
:1017F00080B400AF024B1B781846BD4680BC7047D2
:1018000012030020B0B588B000AF204B204A1A6008
:1018100001F098FC00233B6000237B601D4BFB60C4
:1018200001233B613A463B1D1146184601F072FD0B
:101830000346002B02D001F0ABFC23E0134BBB614D
:1018400013237B610023FB6116E0FB6903F1007346
:1018500003F57C539B001946FB699B00BA6913444E
:101860001B6800221C46154622462B46022001F02A
:10187000F9FBFB690133FB61FA697B699A42E4DB9E
:1018800001F086FC2037BD46B0BD00BF1803002024
:101890004E3C2B1A00FC000880B582B000AF264BEE
:1018A0007B607B681B68254A934205D14C2279688E
:1018B000234805F0D8FE3AE009222249224805F0E3
:1018C000C8FD1F4B00225A731D4B0C229A731C4BF0
:1018D0000222DA731A4B5C221A74194B29225A74A9
:1018E00031221A491A4805F0B4FD154B002283F83D
:1018F0004320134B002283F84420114B052283F828
:1019000045200F4B5A2283F846200D4B142283F8B2
:1019100047200B4B1E2283F84820094B1E2283F8D8
:101920004920074BFF2283F84A20FFF76BFF00BFD7
:101930000837BD4680BD00BF00FC00084E3C2B1A96
:101940001803002030A000081C03002038A0000865
:101950002A03002080B58CB000AF78608E4978688B
:1019600005F08AFDF862FB6A002B07D00922F96AAC
:101970008A4805F06EFD8A4B00225A738649002082
:1019800005F07AFDF862FB6A002B11D0F86A03F0CB
:1019900026FFB862BB6A002B07DBBB6A0F2B02DC99
:1019A000BB6ADBB202E00F2300E000237C4A9373A2
:1019B0007949002005F060FDF862FB6A002B11D028
:1019C000F86A03F00CFF78627B6A002B07DD7B6A04
:1019D000632B02DC7B6ADBB202E0632300E00123BD
:1019E0006F4AD3736C49002005F046FDF862FB6A2C
:1019F000002B0DD0F86AFEF7ABFB0346012B07D98D
:101A0000FB6A1A78664B1A74FB6A5A78644B5A74EC
:101A10006149002005F030FDF862FB6A002B0CD014
:101A2000F86A03F0DCFE0346002B14BF01230023F9
:101A3000DBB21A465A4B83F844205749002005F080
:101A40001BFDF862FB6A002B12D0F86A03F0C7FE98
:101A500038623B6A002B07DB3B6AC82B02DC3B6A1F
:101A6000DBB202E0C82300E000234D4A82F8453093
:101A70004949002005F000FDF862FB6A002B12D0F6
:101A8000F86A03F0ACFEF861FB69002B07DBFB6929
:101A9000C82B02DCFB69DBB202E0C82300E00023B4
:101AA0003F4A82F846303C49002005F0E5FCF862E8
:101AB000FB6A002B12D0F86A03F091FEB861BB6993
:101AC000002B07DDBB69632B02DCBB69DBB202E0E4
:101AD000632300E00123324A82F847302E49002078
:101AE00005F0CAFCF862FB6A002B12D0F86A03F01A
:101AF00076FE78617B69042B07DD7B69F02B02DCC5
:101B00007B69DBB202E0F02300E00523244A82F87F
:101B100048302149002005F0AFFCF862FB6A002B39
:101B200012D0F86A03F05BFE38613B69042B07DDD5
:101B30003B69782B02DC3B69DBB202E0782300E0F2
:101B40000523174A82F849301349002005F094FC18
:101B5000F862FB6A002B08D0F86A03F040FEF860D8
:101B6000FB68DAB20E4B83F84A200E49002005F0DC
:101B700083FCF862FB6A002B08D03122F96A0A481C
:101B800005F067FC064B002283F84320FFF73AFE7E
:101B900000BF3037BD4680BD50A000081C030020A8
:101BA0001803002054A000082A03002080B594B038
:101BB00000AF0346FB71FB790A2B03D0FB790D2B99
:101BC00040F09C80584B1B78142B40F29380564B6E
:101BD0001B781A46554B002199545549534805F036
:101BE000A7FC78647B6C002B00F084800023FB64EE
:101BF0007B6CBB600023BB641AE0BB6C7A6C134443
:101C00001B782C2B11D1BB6C7A6C134400221A70F8
:101C1000BB6C0133FA6C0132FA647A6C1A44FB6CC7
:101C20009B0050333B4443F8482CBB6C0133BB64EE
:101C3000BB6C7A6C13441B78002B02D0FB6C0D2B11
:101C4000DBDDFB6C082B55DD3B691B78412B0CBFA2
:101C500001230023DBB21A46364B1A74354B1B7C2A
:101C6000002B47D07B69184603F0B6FD02460B46B1
:101C700010461946FEF728FF03462E4A1360BB693B
:101C80001B78532B05D12B4B1B6883F00043294A4B
:101C90001360FB69184603F09FFD02460B46104691
:101CA0001946FEF711FF0346224A53603B6A1B7830
:101CB000572B05D11F4B5B6883F000431D4A5360CF
:101CC0007B6A184603F088FD02460B46104619460B
:101CD000FEF7FAFE0346174A9360BB6A184603F004
:101CE0007BFD02460B4610461946FEF7EDFE034605
:101CF000104AD3600C4B00221A7011E00A4B1B787B
:101D00007E2B0AD8084B1B785A1CD1B2064A117098
:101D10001946064AFB79535402E0034B00221A701D
:101D200000BF5037BD4680BDF80300207803002077
:101D300058A000086403002080B400AFBFF34F8FA9
:101D400000BF064BDB6803F4E0620449044B134315
:101D5000CB60BFF34F8F00BF00BFFDE700ED00E099
:101D60000400FA0580B500AF00F036FF00F044F83B
:101D700000F060F900F086F800F0DEF800F006F9F7
:101D8000FFF78AFD00F02CF901221449144802F0F3
:101D900094FF002200211E2001F07BF81E2001F09C
:101DA00094F800F0F1FAFFF713FD01220D490E48F7
:101DB00002F083FF0D4802F001F900210B4802F008
:101DC0009FF90B4B0B4A1A6000F0AAFE00F05CFF73
:101DD000034613F5805FF7D9FFF7AEFF1D0500201E
:101DE000D40400201C05002044040020FC03002033
:101DF0001C0000200000F0FF80B590B000AF07F19C
:101E0000180328220021184605F009FB3B1D00227B
:101E10001A605A609A60DA601A610123BB614FF45C
:101E20008033FB6100233B620123BB6202237B639F
:101E30004FF48033BB634FF4E013FB6307F11803E7
:101E4000184601F0ABFC0346002B01D000F032FA3B
:101E50000F237B600223BB600023FB604FF4806391
:101E60003B6100237B613B1D0221184601F018FFF6
:101E70000346002B01D000F01DFA00BF4037BD46DD
:101E800080BD000080B58AB000AF07F120030022BA
:101E90001A605A603B1D00221A605A609A60DA602C
:101EA0001A615A619A61224B224A1A60204B002221
:101EB0005A601F4B00229A601D4B40F2DB52DA60E1
:101EC0001B4B00221A611A4B00229A61184802F03B
:101ED000C7F80346002B01D000F0ECF900233B6269
:101EE00000237B6207F120031946114802F09AFD96
:101EF0000346002B01D000F0DDF960237B60002356
:101F0000BB600023FB6000237B613B1D0022194660
:101F1000074802F087FA0346002B01D000F0CAF907
:101F2000034800F009FB00BF2837BD4680BD00BF55
:101F3000FC0300200008004080B500AF114B124A9E
:101F40001A60104B4FF416525A600E4B00229A60E2
:101F50000C4B0022DA600B4B00221A61094B0C2259
:101F60005A61084B00229A61064B0022DA6105484B
:101F700002F0C8FD0346002B01D000F09BF900BF22
:101F800080BD00BF440400200038014080B500AF90
:101F9000114B124A1A60104B4FF4E1325A600E4B4B
:101FA00000229A600C4B0022DA600B4B00221A616F
:101FB000094B0C225A61084B00229A61064B002201
:101FC000DA61054802F09EFD0346002B01D000F0C7
:101FD00071F900BF80BD00BF8C04002000440040A8
:101FE00080B500AF114B124A1A60104B4FF41652D5
:101FF0005A600E4B00229A600C4B0022DA600B4BA9
:1020000000221A61094B0C225A61084B00229A6186
:10201000064B0022DA61054802F074FD0346002BEE
:1020200001D000F047F900BF80BD00BFD4040020FC
:102030000048004080B588B000AF07F110030022CF
:102040001A605A609A60DA602D4B9B692C4A43F003
:10205000100393612A4B9B6903F01003FB60FB683C
:10206000274B9B69264A43F020039361244B9B69CD
:1020700003F02003BB60BB68214B9B69204A43F0FF
:10208000040393611E4B9B6903F004037B607B6830
:102090001B4B9B691A4A43F008039361184B9B69D9
:1020A00003F008033B603B6801224FF400511548E0
:1020B00001F05CFB00220221134801F057FB4FF4B2
:1020C00000533B6101237B610023BB610223FB6161
:1020D00007F1100319460B4801F0C4F902233B61D4
:1020E00001237B610223BB610223FB6107F1100323
:1020F0001946054801F0B6F900BF2037BD4680BD3E
:10210000001002400010014000080140F0B5C3B0CB
:102110000CAF78617B691B68574A93420AD1574BD1
:102120001B78DBB21846FFF741FD012253495448A2
:1021300002F0C3FD7B691B68524A934240F09880CD
:10214000514B1B780A2B03D04F4B1B780D2B75D1AD
:102150004E4B1B78DBB21A464D4B0021995404229A
:102160004C494B4805F063F90346002B04D14A4B18
:102170001846FFF7EFFB5DE007224849444805F0A9
:1021800056F90346002B55D1454B9B7B9C46444B4F
:10219000DB7B1A46424B1B7C1946414B5B7C1C4641
:1021A0003F4B93F844301D463D4B93F845301E4657
:1021B0003B4B93F846303B61394B93F84730FB601B
:1021C000374B93F84830BB60354B93F849307B6010
:1021D000334B93F84A303B6007F11800314B0A93B8
:1021E000D7F800E0CDF824E0D7F804E0CDF820E0FF
:1021F000D7F808E0CDF81CE0D7F80CE0CDF818E0EF
:102200003B690593049603950294019100926346FD
:10221000254A264905F09EF807F118031846FDF7F0
:1022200097FF03469AB207F118014FF4FA7320485A
:1022300002F0B8FC154B00221A7014E0134B1B7807
:10224000DBB27E2B0CD8114B1B78DBB25A1CD1B2FF
:102250000E4A11701A460C4B19780D4B995402E036
:102260000A4B00221A7001220749114802F025FD8D
:1022700000BFDC37BD46F0BD003801401C05002022
:1022800044040020004800401D050020A005002057
:102290002005002060A000082405002068A0000898
:1022A000180300202A0300201C03002070A000084F
:1022B000D404002080B400AF72B600BF00BFFDE7B9
:1022C00080B584B000AF78607B681B68254A934274
:1022D00044D1254B1B78002B40D0244B1B88002B6E
:1022E00019D1FFF7EBF903461A46214B1A70204B20
:1022F0001B78FF2B04D0FFF77BFA0346002B0AD193
:10230000194B00221A70194B00221A8000F062F853
:1023100000F096F822E0164B1B78002B01D0154BED
:1023200000E0154BFB60154B1A68FB681344134A19
:102330001360124B1B681B0E114AD25C114B1B68B9
:102340005A630A4B1B8801339AB2084B1A80074B19
:102350001B88272B02D9054B00221A801037BD4657
:1023600080BD00BF00080040A1050020A805002096
:102370000100002066666606BBBBBB0BA4050020FF
:102380009CA00008FC03002080B400AF044B002296
:102390001A70044B00221A8000BFBD4680BC7047F3
:1023A000A1050020A805002080B400AF064B002244
:1023B0001A80064B00221A60054B01221A7000BFDA
:1023C000BD4680BC704700BFA8050020A4050020C2
:1023D000A105002080B400AF064B00221A70064B06
:1023E00000221A80054B1B6800225A6300BFBD46BD
:1023F00080BC7047A1050020A8050020FC03002038
:1024000080B400AF024B1B781846BD4680BC7047B5
:10241000A105002080B500AF6423082205490648C5
:1024200002F0C0FB00224FF40051044801F09EF975
:1024300000BF80BD040000208C040020001001407B
:1024400080B500AF642308220549064802F0AAFBC4
:1024500001224FF40051044801F088F900BF80BD0B
:102460000C0000208C0400200010014080B500AF5B
:102470000A2301220249034802F094FB00BF80BDF9
:10248000140000208C04002080B485B000AF154BF0
:102490009B69144A43F001039361124B9B6903F05B
:1024A0000103BB60BB680F4BDB690E4A43F08053EE
:1024B000D3610C4BDB6903F080537B607B680A4B74
:1024C0005B68FB60FB6823F0E063FB60FB6843F044
:1024D0008063FB60044AFB68536000BF1437BD464D
:1024E00080BC7047001002400000014080B584B0FD
:1024F00000AF78607B681B680D4A934213D10D4B87
:10250000DB690C4A43F00403D3610A4BDB6903F037
:102510000403FB60FB68002200211E2000F0B9FCD0
:102520001E2000F0D2FC00BF1037BD4680BD00BFAA
:10253000000800400010024080B588B000AF78600D
:1025400007F1100300221A605A609A60DA607B6813
:102550001B680F4A934217D10E4B9B690D4A43F0FB
:10256000080393610B4B9B6903F00803FB60FB6856
:1025700040233B6102237B610223FB6107F11003CF
:102580001946054800F06EFF00BF2037BD4680BDEC
:102590000008004000100240000C014080B58CB0E3
:1025A00000AF786007F1200300221A605A609A6039
:1025B000DA607B681B685F4A93423AD15E4B9B6945
:1025C0005D4A43F4804393615B4B9B6903F4804312
:1025D000FB61FB69584B9B69574A43F004039361C5
:1025E000554B9B6903F00403BB61BB694FF4007357
:1025F0003B6202237B620323FB6207F1200319463F
:102600004E4800F02FFF4FF480633B6200237B6253
:102610000023BB6207F120031946484800F022FF5F
:1026200000220021252000F034FC252000F04DFC84
:102630007CE07B681B68424A934238D13E4BDB69A1
:102640003D4A43F40033D3613B4BDB6903F4003371
:102650007B617B69384B9B69374A43F00403936184
:10266000354B9B6903F004033B613B6904233B62E8
:1026700002237B620323FB6207F1200319462F48E4
:1026800000F0F0FE08233B6200237B620023BB6264
:1026900007F120031946294800F0E4FE002200213A
:1026A000262000F0F6FB262000F00FFC3EE07B68C1
:1026B0001B68244A934239D11F4BDB691E4A43F4FD
:1026C0008023D3611C4BDB6903F48023FB60FB6830
:1026D000194B9B69184A43F008039361164B9B6999
:1026E00003F00803BB60BB684FF480633B620223C6
:1026F0007B620323FB6207F120031946124800F0B6
:10270000B1FE4FF400633B6200237B620023BB6297
:1027100007F1200319460C4800F0A4FE0022002116
:10272000272000F0B6FB272000F0CFFB00BF30379A
:10273000BD4680BD00380140001002400008014045
:102740000044004000480040000C014080B400AF4D
:1027500000BFFDE780B400AF00BFFDE780B400AF6D
:1027600000BFFDE780B400AF00BFFDE780B400AF5D
:1027700000BFFDE780B400AF00BFBD4680BC70471E
:1027800080B400AF00BFBD4680BC704780B400AFCE
:1027900000BFBD4680BC704780B500AF00F062FA54
:1027A00000BF80BD80B500AF024801F04BFD00BF07
:1027B00080BD00BFFC03002080B500AF024802F0DE
:1027C000A1FA00BF80BD00BF4404002080B500AF67
:1027D000024802F097FA00BF80BD00BF8C040020C1
:1027E00080B500AF024802F08DFA00BF80BD00BF87
:1027F000D404002080B400AF01231846BD4680BC3D
:10280000704780B582B000AF7860396004F0F0FEA8
:10281000034616221A604FF0FF3318460837BD46AC
:1028200080BD80B582B000AF78604FF0FF3178682E
:10283000FFF7E7FF00BFFDE780B586B000AFF860A7
:10284000B9607A6000237B610AE0AFF30080014643
:10285000BB685A1CBA60CAB21A707B6901337B61CB
:102860007A697B689A42F0DB7B6818461837BD4668
:1028700080BD80B586B000AFF860B9607A60002393
:102880007B6109E0BB685A1CBA601B781846AFF33D
:1028900000807B6901337B617A697B689A42F1DB56
:1028A0007B6818461837BD4680BD80B483B000AF42
:1028B00078604FF0FF3318460C37BD4680BC704738
:1028C00080B483B000AF786039603B684FF4005249
:1028D0005A60002318460C37BD4680BC704780B450
:1028E00083B000AF7860012318460C37BD4680BC2A
:1028F000704780B485B000AFF860B9607A6000239B
:1029000018461437BD4680BC7047000080B586B0BD
:1029100000AF7860144A154BD31A7B617B693B6129
:10292000134B1B68002B02D1114B124A1A60104B3B
:102930001A687B6813443A699A4207D204F058FE39
:1029400003460C221A604FF0FF3309E0084B1B6866
:10295000FB60074B1A687B681344054A1360FB68E9
:1029600018461837BD4680BD005000200004000006
:10297000AC0500202807002080B400AF00BFBD4692
:1029800080BC7047B0B584B000AF424B9B684249F1
:102990001846FEF7F7F90346FB60404B93F84530C5
:1029A0001846FEF797F903461946F868FEF788FBC4
:1029B0000346002B08D0394B93F847301A464EF6A1
:1029C000602302FB03F360E0344B93F84630184673
:1029D000FEF780F903461946F868FEF785FB0346C3
:1029E000002B08D02D4B93F848301A464FF47A73D9
:1029F00002FB03F349E0294B93F845301846FEF7F4
:102A000069F903461946F868FEF7B2F803461D4611
:102A1000224B93F846301846FEF75CF904461F4BEC
:102A200093F845301846FEF755F9034619462046F7
:102A3000FEF79EF8034619462846FEF757FA034666
:102A4000BB60164B93F847301A464EF6602302FBE4
:102A500003F37B60114B93F848301A464FF47A73B6
:102A600002FB03F33B607A683B68D31A1846FEF713
:102A700031F90346B9681846FEF784F9034618464B
:102A8000FEF76CFB02467B689B1A18461037BD4662
:102A9000B0BD00BF64030020560EED3F18030020B8
:102AA00080B500AF01220221194800F05FFEFFF758
:102AB000B1FC4FF4FA7000F0F1F8164B1868154BA2
:102AC0005968144B9A68134BDB68FEF7BDFCFFF79F
:102AD0006BFC04E0FFF7CAFC322000F0DFF8FFF7E0
:102AE0008FFC0346002BF5D1FFF774FCFFF7A8FC21
:102AF00000220221064800F039FE00F0C5F8034626
:102B0000054A1360034BDB68044A136000BF80BDB5
:102B100000080140640300201C000020B0050020D4
:102B200080B582B000AF164B1B7C002B24D000F088
:102B3000ABF87860134B93F84430002B0CD0FFF7C0
:102B400021FF3860104B1B687A68D31A3A689A42A2
:102B500013D8FFF7A5FF10E00B4B1B687A68D21A59
:102B6000084BDB7B19464EF6602301FB03F39A42C8
:102B700003D3FFF795FF00E000BF0837BD4680BDD7
:102B800064030020180300201C000020FFF7F4FE5F
:102B90000B480C490C4A002302E0D458C4500433BB
:102BA000C4188C42F9D3094A094C002301E0136090
:102BB0000432A242FBD304F021FDFFF7D3F87047A3
:102BC00000000020F001002058A60008F0010020BD
:102BD00024070020FEE7000080B500AF084B1B680B
:102BE000074A43F010031360032000F047F90F2059
:102BF00000F008F8FFF748FC0023184680BD00BF2E
:102C00000020024080B582B000AF7860124B1A6895
:102C1000124B1B7819464FF47A73B3FBF1F3B2FBF6
:102C2000F3F3184600F05FF90346002B01D00123AF
:102C30000EE07B680F2B0AD8002279684FF0FF3036
:102C400000F027F9064A7B681360002300E00123A7
:102C500018460837BD4680BD18000020240000201B
:102C60002000002080B400AF054B1B781A46054BAE
:102C70001B681344034A136000BFBD4680BC704705
:102C800024000020B405002080B400AF024B1B6874
:102C90001846BD4680BC7047B405002080B584B09E
:102CA00000AF7860FFF7F0FFB8607B68FB60FB68FF
:102CB000B3F1FF3F05D00A4B1B781A46FB6813445B
:102CC000FB6000BFFFF7E0FF0246BB68D31AFA685B
:102CD0009A42F7D800BF00BF1037BD4680BD00BF85
:102CE0002400002080B485B000AF78607B6803F0DA
:102CF0000703FB600C4BDB68BB60BA684FF6FF0351
:102D00001340BB60FB681A02BB68134343F0BF6308
:102D100043F40033BB60044ABB68D36000BF143780
:102D2000BD4680BC704700BF00ED00E080B400AF3E
:102D3000044BDB681B0A03F007031846BD4680BC42
:102D4000704700BF00ED00E080B483B000AF0346E1
:102D5000FB7197F90730002B0BDBFB7903F01F02A7
:102D6000064997F907305B09012000FA02F241F8A1
:102D7000232000BF0C37BD4680BC704700E100E057
:102D800080B483B000AF03463960FB7197F9073018
:102D9000002B0ADB3B68DAB20C4997F907301201C5
:102DA000D2B20B4483F800230AE03B68DAB2084948
:102DB000FB7903F00F03043B1201D2B20B441A76E5
:102DC00000BF0C37BD4680BC704700BF00E100E08B
:102DD00000ED00E080B489B000AFF860B9607A60BF
:102DE000FB6803F00703FB61FB69C3F10703042BD6
:102DF00028BF0423BB61FB690433062B02D9FB699E
:102E0000033B00E000237B614FF0FF32BB6902FA15
:102E100003F3DA43BB681A407B699A404FF0FF31F5
:102E20007B6901FA03F3D9437B680B4013431846CF
:102E30002437BD4680BC704780B582B000AF786053
:102E40007B68013BB3F1807F01D301230FE00A4A85
:102E50007B68013B53600F214FF0FF30FFF790FF7D
:102E6000054B00229A60044B07221A600023184683
:102E70000837BD4680BD00BF10E000E080B582B0DD
:102E800000AF78607868FFF72DFF00BF0837BD46B8
:102E900080BD80B586B000AF0346B9607A60FB7331
:102EA00000237B61FFF742FF78617A68B96878692F
:102EB000FFF790FF024697F90F3011461846FFF7CB
:102EC0005FFF00BF1837BD4680BD80B582B000AF40
:102ED0000346FB7197F907301846FFF735FF00BF2F
:102EE0000837BD4680BD80B582B000AF7860786895
:102EF000FFF7A2FF034618460837BD4680BD80B4E1
:102F000085B000AF78600023FB737B6893F82130B5
:102F1000DBB2022B08D07B6804229A637B68002214
:102F200083F82020012320E07B681B681A687B68F7
:102F30001B6822F00E021A607B681B681A687B68A7
:102F40001B6822F001021A607B681A6C7B68DB6BDD
:102F5000012101FA02F25A607B68012283F82120E4
:102F60007B68002283F82020FB7B18461437BD467F
:102F700080BC704780B584B000AF78600023FB73DD
:102F80007B6893F82130DBB2022B05D07B680422EA
:102F90009A630123FB7351E07B681B681A687B68A6
:102FA0001B6822F00E021A607B681B681A687B6837
:102FB0001B6822F001021A607B681B68224A934258
:102FC00029D07B681B68214A934222D07B681B680A
:102FD0001F4A93421AD07B681B681E4A934212D044
:102FE0007B681B681C4A93420AD07B681B681B4A9B
:102FF000934202D14FF480130EE04FF080730BE048
:103000004FF4803308E04FF4805305E04FF48073B1
:1030100002E0102300E00123114A53607B68012283
:1030200083F821207B68002283F820207B685B6B7B
:10303000002B03D07B685B6B78689847FB7B184656
:103040001037BD4680BD00BF080002401C00024092
:103050003000024044000240580002406C00024030
:1030600000000240F0B587B000AFF860B960C7E972
:1030700000230123FB750023BB7500237B752F4BB9
:103080001B7E012B01D1022354E02C4B01221A7626
:103090004CF2503000F0A8F80346FB75FB7D002B86
:1030A00044D1FB68012B02D101237B7507E0FB684B
:1030B000022B02D102237B7501E004237B750023E0
:1030C000BB752DE0BB7D5A00BB6802EB030CBB7DDA
:1030D0001901D7E90023C1F12006A1F1200022FA4D
:1030E00001F403FA06F6344323FA00F0044323FA0A
:1030F00001F5A3B21946604600F05AF84CF2503080
:1031000000F072F80346FB750D4B1B690C4A23F067
:1031100001031361FB7D002B07D1BB7D0133BB7520
:10312000BA7D7B7D9A42CDD300E000BF034B0022E5
:103130001A76FB7D18461C37BD46F0BDB805002049
:103140000020024080B483B000AF0023FB710D4B20
:103150001B6903F08003002B0DD00A4B0A4A5A600A
:10316000084B0A4A5A60074B1B6903F08003002B87
:1031700001D00123FB71FB7918460C37BD4680BC9A
:10318000704700BF0020024023016745AB89EFCDA7
:1031900080B400AF054B1B69044A43F08003136100
:1031A00000231846BD4680BC704700BF0020024087
:1031B00080B483B000AF78600B467B80084B002260
:1031C000DA61084B1B69074A43F0010313617B680E
:1031D0007A881A8000BF0C37BD4680BC704700BF9C
:1031E000B80500200020024080B584B000AF7860B0
:1031F000FFF74AFDF86010E07B68B3F1FF3F0CD0A9
:103200007B68002B07D0FFF73FFD0246FB68D31A0F
:103210007A689A4201D2032325E0154BDB6803F05C
:103220000103002BE8D1124BDB6803F02003002BD5
:1032300002D00F4B2022DA600D4BDB6803F0100345
:10324000002B0BD10A4BDB6903F00103002B05D1E6
:10325000074BDB6803F00403002B03D000F00AF8EF
:10326000012300E0002318461037BD4680BD00BF93
:103270000020024080B483B000AF00237B60234B6A
:10328000DB6803F01003002B09D0214BDB6943F00E
:1032900002031F4AD3617B6843F010037B601B4B22
:1032A000DB6803F00403002B09D0194BDB6943F002
:1032B0000103174AD3617B6843F004037B60134B1F
:1032C000DB6903F00103002B0BD0114BDB6943F0EA
:1032D00004030F4AD3610D4BDB690C4A23F0010351
:1032E000D3617B6840F20112934206D1074BDB6940
:1032F000064A23F00103D36102E0044A7B68D360ED
:1033000000BF0C37BD4680BC704700BF00200240A4
:10331000B805002080B584B000AF78603960012323
:10332000FB730023BB602F4B1B7E012B01D10223BB
:1033300053E02C4B01221A767B681B68022B16D1B6
:103340004CF25030FFF750FF0346002B41D10120D3
:1033500000F04CF84CF25030FFF746FF0346FB7389
:10336000214B1B69204A23F00403136131E04CF226
:103370005030FFF739FF0346002B2AD13B684FF04E
:10338000FF321A607B689B68BB6019E0B86800F088
:1033900049F84CF25030FFF727FF0346FB73124BFE
:1033A0001B69114A23F002031361FB7B002B03D03E
:1033B0003B68BA681A600CE0BB6803F58063BB60C9
:1033C0007B68DB689A027B689B681344BA689A4200
:1033D000DCD3044B00221A76FB7B18461037BD461F
:1033E00080BD00BFB80500200020024080B483B03B
:1033F00000AF7860094B0022DA61094B1B69084A6B
:1034000043F004031361064B1B69054A43F0400374
:10341000136100BF0C37BD4680BC7047B805002063
:103420000020024080B483B000AF78600B4B0022D4
:10343000DA610B4B1B690A4A43F002031361084A25
:103440007B685361064B1B69054A43F040031361D7
:1034500000BF0C37BD4680BC704700BFB8050020D8
:103460000020024080B48BB000AF78603960002348
:103470007B6200233B6269E101227B6A02FA03F36B
:10348000FB613B681B68FA691340BB61BA69FB6961
:103490009A4240F058813B685B689A4A93425ED0FA
:1034A000984A934275D8984A934258D0964A934284
:1034B0006FD8964A934252D0944A934269D8944A1C
:1034C00093424CD0924A934263D8924A934246D058
:1034D000904A93425DD8122B2AD8122B59D801A2B8
:1034E00052F823F05F350008393500084B350008E5
:1034F0008D35000893350008933500089335000892
:10350000933500089335000893350008933500087B
:10351000933500089335000893350008933500086B
:1035200093350008933500084135000855350008EB
:10353000794A934213D02CE03B68DB683B6229E078
:103540003B68DB6804333B6224E03B68DB6808339C
:103550003B621FE03B68DB680C333B621AE03B6870
:103560009B68002B02D104233B6213E03B689B68FD
:10357000012B05D108233B627B68FA691A6109E0D7
:1035800008233B627B68FA695A6103E000233B62CF
:1035900000E000BFBB69FF2B01D87B6801E07B68BE
:1035A00004337B61BB69FF2B02D87B6A9B0002E07E
:1035B0007B6A083B9B003B617B691A680F213B6972
:1035C00001FA03F3DB431A40396A3B6901FA03F35A
:1035D0001A437B691A603B685B6803F08053002BD9
:1035E00000F0B1804D4B9B694C4A43F0010393615D
:1035F0004A4B9B6903F00103BB60BB68484A7B6A86
:103600009B08023352F82330FB607B6A03F003030C
:103610009B000F2202FA03F3DB43FA681340FB60BE
:103620007B68404A934213D07B683F4A93420DD057
:103630007B683E4A934207D07B683D4A934201D162
:10364000032306E0042304E0022302E0012300E058
:1036500000237A6A02F0030292009340FA6813434F
:10366000FB602F497B6A9B080233FA6841F82320EC
:103670003B685B6803F48013002B06D02D4B9A68DF
:103680002C49BB6913438B6006E02A4B9A68BB69DF
:10369000DB43284913408B603B685B6803F40013ED
:1036A000002B06D0234BDA682249BB691343CB6059
:1036B00006E0204BDA68BB69DB431E491340CB6050
:1036C0003B685B6803F40033002B06D0194B5A6843
:1036D0001849BB6913434B6006E0164B5A68BB6937
:1036E000DB43144913404B603B685B6803F4803351
:1036F000002B21D00F4B1A680E49BB6913430B6096
:1037000021E000BF00003210000031100000221044
:1037100000002110000012100000111000100240E3
:103720000000014000080140000C01400010014071
:1037300000140140000401400B4B1A68BB69DB43D5
:10374000094913400B607B6A01337B623B681A684E
:103750007B6A22FA03F3002B7FF48EAE00BF00BF1A
:103760002C37BD4680BC70470004014080B483B054
:1037700000AF78600B467B8013467B707B78002B14
:1037800003D07A887B681A6103E07B881A047B681F
:103790001A6100BF0C37BD4680BC704780B586B04B
:1037A00000AF78607B68002B01D1012372E27B6857
:1037B0001B6803F00103002B00F08780924B5B68CD
:1037C00003F00C03042B0CD08F4B5B6803F00C034D
:1037D000082B12D18C4B5B6803F48033B3F5803F28
:1037E0000BD1894B1B6803F40033002B6CD07B6832
:1037F0005B68002B68D101234CE27B685B68B3F502
:10380000803F06D1804B1B687F4A43F480331360AE
:103810002EE07B685B68002B0CD17B4B1B687A4ADF
:1038200023F480331360784B1B68774A23F480239A
:1038300013601DE07B685B68B3F5A02F0CD1724B61
:103840001B68714A43F4802313606F4B1B686E4AF8
:1038500043F4803313600BE06B4B1B686A4A23F41C
:1038600080331360684B1B68674A23F4802313601E
:103870007B685B68002B13D0FFF706FA386108E01D
:10388000FFF702FA02463B69D31A642B01D90323DE
:1038900000E25D4B1B6803F40033002BF0D014E012
:1038A000FFF7F2F9386108E0FFF7EEF902463B69ED
:1038B000D31A642B01D90323ECE1534B1B6803F4A7
:1038C0000033002BF0D100E000BF7B681B6803F0E1
:1038D0000203002B63D04C4B5B6803F00C03002BFE
:1038E0000BD0494B5B6803F00C03082B1CD1464BF3
:1038F0005B6803F48033002B16D1434B1B6803F045
:103900000203002B05D07B681B69012B01D001232A
:10391000C0E13D4B1B6823F0F8027B685B69DB006C
:10392000394913430B603AE07B681B69002B20D0B8
:10393000364B01221A60FFF7A7F9386108E0FFF75C
:10394000A3F902463B69D31A022B01D90323A1E153
:103950002D4B1B6803F00203002BF0D02A4B1B6891
:1039600023F0F8027B685B69DB00274913430B6097
:1039700015E0264B00221A60FFF786F9386108E04F
:10398000FFF782F902463B69D31A022B01D90323C0
:1039900080E11D4B1B6803F00203002BF0D17B6814
:1039A0001B6803F00803002B3AD07B689B69002B4F
:1039B00019D0174B01221A60FFF766F9386108E049
:1039C000FFF762F902463B69D31A022B01D90323A0
:1039D00060E10D4B5B6A03F00203002BF0D0012085
:1039E00000F0CEFA1CE00A4B00221A60FFF74CF9F7
:1039F00038610FE0FFF748F902463B69D31A022B02
:103A000008D9032346E100BF0010024000004242F3
:103A100080044242924B5B6A03F00203002BE9D11F
:103A20007B681B6803F00403002B00F0A6800023D2
:103A3000FB758B4BDB6903F08053002B0DD1884B5A
:103A4000DB69874A43F08053D361854BDB6903F020
:103A50008053BB60BB680123FB75824B1B6803F47A
:103A60008073002B18D17F4B1B687E4A43F4807310
:103A70001360FFF709F9386108E0FFF705F902461E
:103A80003B69D31A642B01D9032303E1754B1B68EF
:103A900003F48073002BF0D07B68DB68012B06D128
:103AA0006F4B1B6A6E4A43F0010313622DE07B6883
:103AB000DB68002B0CD16A4B1B6A694A23F00103B7
:103AC0001362674B1B6A664A23F0040313621CE00F
:103AD0007B68DB68052B0CD1614B1B6A604A43F0A5
:103AE000040313625E4B1B6A5D4A43F001031362D9
:103AF0000BE05B4B1B6A5A4A23F001031362584BDD
:103B00001B6A574A23F0040313627B68DB68002BAF
:103B100015D0FFF7B9F838610AE0FFF7B5F80246AB
:103B20003B69D31A41F28832934201D90323B1E0B1
:103B30004B4B1B6A03F00203002BEED014E0FFF79F
:103B4000A3F838610AE0FFF79FF802463B69D31AF1
:103B500041F28832934201D903239BE0404B1B6A18
:103B600003F00203002BEED1FB7D012B05D13C4B72
:103B7000DB693B4A23F08053D3617B68DB69002B10
:103B800000F08780364B5B6803F00C03082B61D094
:103B90007B68DB69022B46D1334B00221A60FFF7AA
:103BA00073F8386108E0FFF76FF802463B69D31AF3
:103BB000022B01D903236DE0294B1B6803F000732E
:103BC000002BF0D17B681B6AB3F5803F08D1244BF2
:103BD0005B6823F400327B689B68214913434B6088
:103BE0001F4B5B6823F474127B68196A7B685B6AFD
:103BF0000B431B4913434B601B4B01221A60FFF719
:103C000043F8386108E0FFF73FF802463B69D31AF2
:103C1000022B01D903233DE0114B1B6803F0007315
:103C2000002BF0D035E0104B00221A60FFF72CF883
:103C3000386108E0FFF728F802463B69D31A022BE7
:103C400001D9032326E0064B1B6803F00073002B09
:103C5000F0D11EE07B68DB69012B07D1012319E05D
:103C60000010024000700040600042420B4B5B6855
:103C7000FB60FB6803F480327B681B6A9A4206D1C2
:103C8000FB6803F470127B685B6A9A4201D00123DF
:103C900000E0002318461837BD4680BD00100240E2
:103CA00080B584B000AF786039607B68002B01D1AB
:103CB0000123D0E06A4B1B6803F007033A689A427D
:103CC00010D9674B1B6823F0070265493B68134313
:103CD0000B60634B1B6803F007033A689A4201D0FC
:103CE0000123B8E07B681B6803F00203002B20D09F
:103CF0007B681B6803F00403002B05D0594B5B68FD
:103D0000584A43F4E06353607B681B6803F0080380
:103D1000002B05D0534B5B68524A43F46053536009
:103D2000504B5B6823F0F0027B689B684D4913435E
:103D30004B607B681B6803F00103002B40D07B685D
:103D40005B68012B07D1474B1B6803F40033002B42
:103D500015D101237FE07B685B68022B07D1414BC3
:103D60001B6803F00073002B09D1012373E03D4B66
:103D70001B6803F00203002B01D101236BE0394BD8
:103D80005B6823F003027B685B68364913434B6032
:103D9000FEF77AFFF8600AE0FEF776FF0246FB685E
:103DA000D31A41F28832934201D9032353E02D4BB9
:103DB0005B6803F00C027B685B689B009A42EBD166
:103DC000274B1B6803F007033A689A4210D2244B32
:103DD0001B6823F0070222493B6813430B60204B0A
:103DE0001B6803F007033A689A4201D0012332E0CE
:103DF0007B681B6803F00403002B08D0194B5B6839
:103E000023F4E0627B68DB68164913434B607B68F0
:103E10001B6803F00803002B09D0124B5B6823F4E6
:103E200060527B681B69DB000E4913434B6000F056
:103E300021F802460B4B5B681B0903F00F030A498C
:103E4000CB5C22FA03F3094A1360094B1B6818463E
:103E5000FEF7D8FE002318461037BD4680BD00BFD0
:103E600000200240001002409CA100081800002021
:103E70002000002080B487B000AF0023FB60002347
:103E8000BB6000237B6100237B6000233B611E4BF2
:103E90005B68FB60FB6803F00C03042B02D0082B6B
:103EA00003D027E0194B3B6127E0FB689B0C03F034
:103EB0000F03174AD35C7B60FB6803F48033002B4D
:103EC00010D0114B5B685B0C03F00103114AD35C0B
:103ED000BB607B680D4A03FB02F2BB68B2FBF3F3E5
:103EE0007B6104E07B680C4A02FB03F37B617B6926
:103EF0003B6102E0054B3B6100BF3B6918461C3744
:103F0000BD4680BC704700BF0010024000127A001E
:103F1000B4A10008C4A1000800093D0080B400AFAE
:103F2000024B1B681846BD4680BC70471800002035
:103F300080B500AFFFF7F2FF0246054B5B681B0A36
:103F400003F007030349CB5C22FA03F3184680BD54
:103F500000100240ACA1000880B500AFFFF7DEFF03
:103F60000246054B5B68DB0A03F007030349CB5CA1
:103F700022FA03F3184680BD00100240ACA10008ED
:103F800080B485B000AF78600A4B1B680A4AA2FB78
:103F900003235B0A7A6802FB03F3FB6000BFFB6844
:103FA0005A1EFA60002BF9D100BF00BF1437BD467E
:103FB00080BC704718000020D34D621080B485B0DB
:103FC00000AF78607B6893F83D30DBB2012B01D005
:103FD00001233AE07B68022283F83D207B681B685E
:103FE000DA687B681B6842F00102DA607B681B6854
:103FF000184A93420ED07B681B68B3F1804F09D0FA
:104000007B681B68144A934204D07B681B68134A80
:10401000934211D17B681B689B6803F00703FB6028
:10402000FB68062B10D07B681B681A687B681B68CE
:1040300042F001021A6007E07B681B681A687B681F
:104040001B6842F001021A60002318461437BD466F
:1040500080BC7047002C0140000400400008004074
:1040600080B582B000AF78607B68002B01D101235E
:1040700041E07B6893F83D30DBB2002B06D17B68D2
:10408000002283F83C207868FEF730FA7B68022231
:1040900083F83D207B681A687B6804331946104614
:1040A00000F0A6FA7B68012283F846207B68012293
:1040B00083F83E207B68012283F83F207B68012241
:1040C00083F840207B68012283F841207B6801222D
:1040D00083F842207B68012283F843207B68012219
:1040E00083F844207B68012283F845207B68012205
:1040F00083F83D20002318460837BD4680BD0000E8
:1041000080B584B000AF786039603B68002B09D17E
:104110007B6893F83E30DBB2012B14BF01230023F0
:10412000DBB222E03B68042B09D17B6893F83F3077
:10413000DBB2012B14BF01230023DBB215E03B6887
:10414000082B09D17B6893F84030DBB2012B14BFF8
:1041500001230023DBB208E07B6893F84130DBB237
:10416000012B14BF01230023DBB2002B01D001235C
:104170005EE03B68002B04D17B68022283F83E207E
:1041800013E03B68042B04D17B68022283F83F20B4
:104190000BE03B68082B04D17B68022283F84020A7
:1041A00003E07B68022283F841207B681B680122C0
:1041B0003968184600F012FC7B681B681E4A93425F
:1041C00007D17B681B685A6C7B681B6842F400420D
:1041D0005A647B681B68184A93420ED07B681B6840
:1041E000B3F1804F09D07B681B68144A934204D016
:1041F0007B681B68124A934211D17B681B689B68DD
:1042000003F00703FB60FB68062B10D07B681B687C
:104210001A687B681B6842F001021A6007E07B683D
:104220001B681A687B681B6842F001021A60002351
:1042300018461037BD4680BD002C014000040040E8
:104240000008004080B584B000AF78607B681B68D0
:10425000DB68FB607B681B681B69BB60BB6803F0A5
:104260000203002B20D0FB6803F00203002B1BD0BD
:104270007B681B686FF002021A617B6801221A7763
:104280007B681B689B6903F00303002B03D07868ED
:1042900000F093F905E0786800F086F9786800F09E
:1042A00095F97B6800221A77BB6803F00403002BA2
:1042B00020D0FB6803F00403002B1BD07B681B6835
:1042C0006FF004021A617B6802221A777B681B6810
:1042D0009B6903F44073002B03D0786800F06DF9FC
:1042E00005E0786800F060F9786800F06FF97B68A5
:1042F00000221A77BB6803F00803002B20D0FB686C
:1043000003F00803002B1BD07B681B686FF00802CA
:104310001A617B6804221A777B681B68DB6903F0EB
:104320000303002B03D0786800F047F905E07868B4
:1043300000F03AF9786800F049F97B6800221A77B2
:10434000BB6803F01003002B20D0FB6803F01003C0
:10435000002B1BD07B681B686FF010021A617B6812
:1043600008221A777B681B68DB6903F44073002B13
:1043700003D0786800F021F905E0786800F014F9BE
:10438000786800F023F97B6800221A77BB6803F095
:104390000103002B0CD0FB6803F00103002B07D0B6
:1043A0007B681B686FF001021A617868FDF788FF6F
:1043B000BB6803F08003002B0CD0FB6803F0800384
:1043C000002B07D07B681B686FF080021A61786849
:1043D00000F08FFBBB6803F04003002B0CD0FB68A0
:1043E00003F04003002B07D07B681B686FF040028E
:1043F0001A61786800F0F3F8BB6803F02003002B23
:104400000CD0FB6803F02003002B07D07B681B68EF
:104410006FF020021A61786800F062FB00BF10376D
:10442000BD4680BD80B586B000AFF860B9607A60E7
:104430000023FB75FB6893F83C30012B01D102236C
:10444000AEE0FB68012283F83C207B680C2B00F275
:104450009F8001A252F823F08D4400089145000886
:104460009145000891450008CD4400089145000899
:1044700091450008914500080F4500089145000846
:1044800091450008914500084F450008FB681B68EE
:10449000B968184600F01AF9FB681B689A69FB684E
:1044A0001B6842F008029A61FB681B689A69FB6806
:1044B0001B6822F004029A61FB681B689969BB685B
:1044C0001A69FB681B680A439A6164E0FB681B6811
:1044D000B968184600F060F9FB681B689A69FB68C8
:1044E0001B6842F400629A61FB681B689A69FB686A
:1044F0001B6822F480629A61FB681B689969BB683B
:104500001B691A02FB681B680A439A6143E0FB6857
:104510001B68B968184600F0A9F9FB681B68DA69DE
:10452000FB681B6842F00802DA61FB681B68DA6905
:10453000FB681B6822F00402DA61FB681B68D9691A
:10454000BB681A69FB681B680A43DA6123E0FB68F1
:104550001B68B968184600F0F3F9FB681B68DA6954
:10456000FB681B6842F40062DA61FB681B68DA6969
:10457000FB681B6822F48062DA61FB681B68D969FA
:10458000BB681B691A02FB681B680A43DA6102E018
:104590000123FB7500BFFB68002283F83C20FB7DF4
:1045A00018461837BD4680BD80B483B000AF786030
:1045B00000BF0C37BD4680BC704780B483B000AFED
:1045C000786000BF0C37BD4680BC704780B483B0B4
:1045D00000AF786000BF0C37BD4680BC704780B428
:1045E00083B000AF786000BF0C37BD4680BC704719
:1045F00080B485B000AF786039607B681B68FB6071
:104600007B682F4A93420BD07B68B3F1804F07D071
:104610007B682C4A934203D07B682B4A934208D193
:10462000FB6823F07003FB603B685B68FA68134328
:10463000FB607B68224A93420BD07B68B3F1804FCA
:1046400007D07B681F4A934203D07B681E4A93427F
:1046500008D1FB6823F44073FB603B68DB68FA68B1
:104660001343FB60FB6823F080023B685B691343E4
:10467000FB607B68FA681A603B689A687B68DA625C
:104680003B681A687B689A627B680D4A934203D143
:104690003B681A697B681A637B6801225A617B68F0
:1046A0001B6903F00103002B05D07B681B6923F015
:1046B00001027B681A6100BF1437BD4680BC704799
:1046C000002C0140000400400008004080B487B086
:1046D00000AF786039607B681B6A7B617B681B6A0E
:1046E00023F001027B681A627B685B683B617B6830
:1046F0009B69FB60FB6823F07003FB60FB6823F0A1
:104700000303FB603B681B68FA681343FB607B692B
:1047100023F002037B613B689B687A6913437B61EA
:104720007B681C4A93420CD17B6923F008037B61B0
:104730003B68DB687A6913437B617B6923F0040380
:104740007B617B68134A934211D13B6923F48073E8
:104750003B613B6923F400733B613B685B693A69E9
:1047600013433B613B689B693A6913433B617B6838
:104770003A695A607B68FA689A613B685A687B6854
:104780005A637B687A691A6200BF1C37BD4680BCD9
:10479000704700BF002C014080B487B000AF786044
:1047A00039607B681B6A7B617B681B6A23F010029F
:1047B0007B681A627B685B683B617B689B69FB6016
:1047C000FB6823F4E043FB60FB6823F44073FB6069
:1047D0003B681B681B02FA681343FB607B6923F08C
:1047E00020037B613B689B681B017A6913437B61F3
:1047F0007B681D4A93420DD17B6923F080037B6166
:104800003B68DB681B017A6913437B617B6923F09A
:1048100040037B617B68144A934213D13B6923F4C4
:1048200080633B613B6923F400633B613B685B69E8
:104830009B003A6913433B613B689B699B003A6963
:1048400013433B617B683A695A607B68FA689A61F6
:104850003B685A687B689A637B687A691A6200BF12
:104860001C37BD4680BC7047002C014080B487B027
:1048700000AF786039607B681B6A7B617B681B6A6C
:1048800023F480727B681A627B685B683B617B689B
:10489000DB69FB60FB6823F07003FB60FB6823F0BF
:1048A0000303FB603B681B68FA681343FB607B698A
:1048B00023F400737B613B689B681B027A69134396
:1048C0007B617B681D4A93420DD17B6923F40063B1
:1048D0007B613B68DB681B027A6913437B617B6900
:1048E00023F480637B617B68144A934213D13B6954
:1048F00023F480533B613B6923F400533B613B68E5
:104900005B691B013A6913433B613B689B691B016F
:104910003A6913433B617B683A695A607B68FA687D
:10492000DA613B685A687B68DA637B687A691A6285
:1049300000BF1C37BD4680BC704700BF002C014043
:1049400080B487B000AF786039607B681B6A3B61D8
:104950007B681B6A23F480527B681A627B685B6801
:104960007B617B68DB69FB60FB6823F4E043FB60F1
:10497000FB6823F44073FB603B681B681B02FA680A
:104980001343FB603B6923F400533B613B689B6826
:104990001B033A6913433B617B680F4A934209D179
:1049A0007B6923F480437B613B685B699B017A6987
:1049B00013437B617B687A695A607B68FA68DA61C5
:1049C0003B685A687B681A647B683A691A6200BF60
:1049D0001C37BD4680BC7047002C014080B487B0B6
:1049E00000AFF860B9607A60BB6803F01F03012272
:1049F00002FA03F37B61FB681A6A7B69DB431A40A6
:104A0000FB681A62FB681A6ABB6803F01F037968C7
:104A100001FA03F31A43FB681A6200BF1C37BD4654
:104A200080BC704780B485B000AF786039607B6827
:104A300093F83C30012B01D1022346E07B68012230
:104A400083F83C207B68022283F83D207B681B684A
:104A50005B68FB607B681B689B68BB60FB6823F03E
:104A60007003FB603B681B68FA681343FB607B685C
:104A70001B68FA685A607B681B68164A93420ED01E
:104A80007B681B68B3F1804F09D07B681B68124AB2
:104A9000934204D07B681B68104A93420CD1BB68D8
:104AA00023F08003BB603B685B68BA681343BB605C
:104AB0007B681B68BA689A607B68012283F83D2096
:104AC0007B68002283F83C20002318461437BD463B
:104AD00080BC7047002C01400004004000080040EA
:104AE00080B483B000AF786000BF0C37BD4680BC97
:104AF000704780B483B000AF786000BF0C37BD460C
:104B000080BC704780B582B000AF78607B68002BB6
:104B100001D1012342E07B6893F84130DBB2002BE6
:104B200006D17B68002283F840207868FDF736FDC7
:104B30007B68242283F841207B681B68DA687B68E5
:104B40001B6822F40052DA60786800F0B7FD7B68D9
:104B50001B681A697B681B6822F490421A617B68A3
:104B60001B685A697B681B6822F02A025A617B68BD
:104B70001B68DA687B681B6842F40052DA607B6865
:104B800000225A647B68202283F841207B6820221F
:104B900083F842207B6800225A63002318460837B6
:104BA000BD4680BD80B58AB002AFF860B9603B6099
:104BB0001346FB8000237B61FB6893F84130DBB236
:104BC000202B75D1BB68002B02D0FB88002B01D1B4
:104BD00001236EE0FB6800225A64FB68212283F8FF
:104BE0004120FEF751F87861FB68FA889A84FB68E7
:104BF000FA88DA84FB689B68B3F5805F08D1FB68AC
:104C00001B69002B04D10023FB61BB68BB6103E07F
:104C1000BB68FB610023BB612EE03B6800937B69AE
:104C200000228021F86800F01CFB0346002B05D011
:104C3000FB68202283F8412003233AE0FB69002B24
:104C40000BD1BB691B881A46FB681B68C2F30802BC
:104C50005A60BB690233BB6107E0FB691A78FB68E5
:104C60001B685A60FB690133FB61FB68DB8C9BB2FC
:104C7000013B9AB2FB68DA84FB68DB8C9BB2002BA9
:104C8000CBD13B6800937B6900224021F86800F09B
:104C9000E8FA0346002B05D0FB68202283F8412068
:104CA000032306E0FB68202283F84120002300E074
:104CB000022318462037BD4680BD80B584B000AFC2
:104CC000F860B9601346FB80FB6893F84230DBB2B2
:104CD000202B12D1BB68002B02D0FB88002B01D106
:104CE00001230BE0FB6800221A63FB881A46B968AF
:104CF000F86800F00FFB034600E002231846103767
:104D0000BD4680BD80B5BAB000AF78607B681B68D7
:104D10001B68C7F8E4307B681B68DB68C7F8E030C5
:104D20007B681B685B69C7F8DC300023C7F8D830A4
:104D30000023C7F8D430D7F8E43003F00F03C7F8E6
:104D4000D830D7F8D830002B0FD1D7F8E43003F0A3
:104D50002003002B09D0D7F8E03003F02003002B0C
:104D600003D0786800F0ECFB5BE2D7F8D830002B7A
:104D700000F0DE80D7F8DC3003F00103002B06D111
:104D8000D7F8E03003F49073002B00F0D180D7F80F
:104D9000E43003F00103002B0BD0D7F8E03003F42C
:104DA0008073002B05D07B685B6C43F001027B684D
:104DB0005A64D7F8E43003F00403002B0BD0D7F883
:104DC000DC3003F00103002B05D07B685B6C43F003
:104DD00002027B685A64D7F8E43003F00203002B28
:104DE0000BD0D7F8DC3003F00103002B05D07B6833
:104DF0005B6C43F004027B685A64D7F8E43003F03C
:104E00000803002B11D0D7F8E03003F02003002B6B
:104E100005D1D7F8DC3003F00103002B05D07B6807
:104E20005B6C43F008027B685A647B685B6C002B08
:104E300000F0F281D7F8E43003F02003002B08D013
:104E4000D7F8E03003F02003002B02D0786800F0A0
:104E500077FB7B681B685B6903F04003002B14BF82
:104E600001230023DBB2C7F8D4307B685B6C03F00E
:104E70000803002B03D1D7F8D430002B4FD078682B
:104E800000F081FA7B681B685B6903F04003002B2C
:104E900041D07B681B681433C7F89C30D7F89C302E
:104EA00053E8003FC7F89830D7F8983023F0400314
:104EB000C7F8D0307B681B681433D7F8D020C7F808
:104EC000A820C7F8A430D7F8A410D7F8A82041E844
:104ED0000023C7F8A030D7F8A030002BD9D17B68C9
:104EE000DB6B002B13D07B68DB6B7E4A5A637B68DD
:104EF000DB6B1846FEF73EF80346002B16D07B68A6
:104F0000DB6B5B6B7A68D26B104698470EE0786873
:104F100000F093F90AE0786800F08FF906E078680D
:104F200000F08BF97B6800225A6475E100BF73E1E1
:104F30007B681B6B012B40F04F81D7F8E43003F006
:104F40001003002B00F04881D7F8E03003F0100385
:104F5000002B00F041810023BB607B681B681B684D
:104F6000BB607B681B685B68BB60BB687B681B6859
:104F70005B6903F04003002B00F0B6807B68DB6BBD
:104F80001B685B68A7F8BE30B7F8BE30002B00F096
:104F900045817B689B8DB7F8BE209A4280F03E81A8
:104FA0007B68B7F8BE20DA857B68DB6B9B69202BBA
:104FB00000F088807B681B680C33C7F88830D7F80E
:104FC000883053E8003FC7F88430D7F8843023F4A2
:104FD0008073C7F8B8307B681B680C33D7F8B820EB
:104FE000C7F89420C7F89030D7F89010D7F89420DD
:104FF00041E80023C7F88C30D7F88C30002BD9D18A
:105000007B681B6814337B677B6F53E8003F3B670B
:105010003B6F23F00103C7F8B4307B681B6814337F
:10502000D7F8B420C7F88020FB67F96FD7F8802045
:1050300041E80023BB67BB6F002BE1D17B681B6895
:1050400014333B663B6E53E8003FFB65FB6D23F07A
:105050004003C7F8B0307B681B681433D7F8B02022
:10506000FA66BB66B96EFA6E41E800237B667B6E1A
:10507000002BE3D17B68202283F842207B6800224A
:105080001A637B681B680C33FB64FB6C53E8003FBE
:10509000BB64BB6C23F01003C7F8AC307B681B68A3
:1050A0000C33D7F8AC20BA657B65796DBA6D41E8F1
:1050B00000233B653B6D002BE3D17B68DB6B18461F
:1050C000FDF71DFF7B6802225A637B689A8D7B681F
:1050D000DB8D9BB2D31A9BB21946786800F0B6F804
:1050E0009CE000BF4B5400087B689A8D7B68DB8D89
:1050F0009BB2D31AA7F8CE307B68DB8D9BB2002B16
:1051000000F08E80B7F8CE30002B00F089807B68ED
:105110001B680C33BB63BB6B53E8003F7B637B6B4B
:1051200023F49073C7F8C8307B681B680C33D7F83A
:10513000C8207A643B64396C7A6C41E80023FB63D5
:10514000FB6B002BE3D17B681B6814337B627B6AAB
:1051500053E8003F3B623B6A23F00103C7F8C430C9
:105160007B681B681433D7F8C4203A63FB62F96A82
:105170003A6B41E80023BB62BB6A002BE3D17B683A
:10518000202283F842207B6800221A637B681B6818
:105190000C333B613B6953E8003FFB60FB6823F045
:1051A0001003C7F8C0307B681B680C33D7F8C020E9
:1051B000FA61BB61B969FA6941E800237B617B69E7
:1051C000002BE3D17B6802225A63B7F8CE30194630
:1051D000786800F03BF823E0D7F8E43003F0800370
:1051E000002B09D0D7F8E03003F08003002B03D068
:1051F000786800F03EF914E0D7F8E43003F040039B
:10520000002B0ED0D7F8E03003F04003002B08D07D
:10521000786800F07DF904E000BF02E000BF00E024
:1052200000BFE837BD4680BD80B483B000AF786072
:1052300000BF0C37BD4680BC704780B483B000AF60
:10524000786000BF0C37BD4680BC704780B483B027
:1052500000AF78600B467B8000BF0C37BD4680BC3A
:10526000704780B586B000AFF860B9603B60134608
:10527000FB713BE03B6AB3F1FF3F37D0FDF704FD24
:1052800002463B68D31A3A6A9A4202D33B6A002B21
:1052900001D103233AE0FB681B68DB6803F00403D9
:1052A000002B23D0BB68802B20D0BB68402B1DD0A7
:1052B000FB681B681B6803F00803082B16D100234A
:1052C0007B61FB681B681B687B61FB681B685B6814
:1052D0007B617B69F86800F056F8FB6808225A6425
:1052E000FB68002283F8402001230FE0FB681B6865
:1052F0001A68BB681340BA689A420CBF01230023A6
:10530000DBB21A46FB799A42B4D00023184618370C
:10531000BD4680BD80B485B000AFF860B96013466B
:10532000FB80FB68BA689A62FB68FA889A85FB681A
:10533000FA88DA85FB6800225A64FB68222283F827
:105340004220FB681B69002B07D0FB681B68DA68EA
:10535000FB681B6842F48072DA60FB681B685A695C
:10536000FB681B6842F001025A61FB681B68DA683F
:10537000FB681B6842F02002DA60002318461437ED
:10538000BD4680BC704780B495B000AF78607B6844
:105390001B680C337B637B6B53E8003F3B633B6BC9
:1053A00023F49073FB647B681B680C33FA6C3A64DB
:1053B000FB63F96B3A6C41E80023BB63BB6B002BCA
:1053C000E5D17B681B6814333B623B6A53E8003FBE
:1053D000FB61FB6923F00103BB647B681B6814332A
:1053E000BA6CFA62BB62B96AFA6A41E800237B626E
:1053F0007B6A002BE5D17B681B6B012B19D17B6885
:105400001B680C33FB60FB6853E8003FBB60BB6864
:1054100023F010037B647B681B680C337A6CBA61E1
:105420007B617969BA6941E800233B613B69002BE4
:10543000E5D17B68202283F842207B6800221A6332
:1054400000BF5437BD4680BC704780B584B000AF04
:1054500078607B685B6AFB60FB680022DA85FB682A
:105460000022DA84F868FFF7E8FE00BF1037BD4677
:1054700080BD80B485B000AF78607B6893F8413020
:10548000DBB2212B3ED17B689B68B3F5805F14D1E2
:105490007B681B69002B10D17B681B6AFB60FB6873
:1054A0001B881A467B681B68C2F308025A607B6837
:1054B0001B6A9A1C7B681A6208E07B681B6A591C8D
:1054C0007A6811621A787B681B685A607B68DB8C8B
:1054D0009BB2013B9BB27A681946D184002B0FD155
:1054E0007B681B68DA687B681B6822F08002DA60E0
:1054F0007B681B68DA687B681B6842F04002DA60F0
:10550000002300E0022318461437BD4680BC7047D4
:1055100080B582B000AF78607B681B68DA687B6812
:105520001B6822F04002DA607B68202283F8412069
:105530007868FFF779FE002318460837BD4680BD1E
:1055400080B58CB000AF78607B6893F84230DBB2F6
:10555000222B40F0AE807B689B68B3F5805F17D14B
:105560007B681B69002B13D10023FB627B689B6A5D
:10557000BB627B681B685B689BB2C3F308039AB28B
:10558000BB6A1A807B689B6A9A1C7B689A6226E0D9
:105590007B689B6AFB620023BB627B689B68B3F5F8
:1055A000805F07D07B689B68002B0AD17B681B69F2
:1055B000002B06D17B681B685B68DAB2FB6A1A7045
:1055C00008E07B681B685B68DBB203F07F03DAB23C
:1055D000FB6A1A707B689B6A5A1C7B689A627B68BC
:1055E000DB8D9BB2013B9BB27A681946D185002BBB
:1055F0005DD17B681B68DA687B681B6822F020023B
:10560000DA607B681B68DA687B681B6822F480724A
:10561000DA607B681B685A697B681B6822F00102AC
:105620005A617B68202283F842207B6800225A63FB
:105630007B681B6B012B35D17B6800221A637B686A
:105640001B680C337B617B6953E8003F3B613B691E
:1056500023F010037B627B681B680C337A6A3A6222
:10566000FB61F9693A6A41E80023BB61BB69002B21
:10567000E5D17B681B681B6803F01003102B0AD16F
:105680000023FB607B681B681B68FB607B681B68F2
:105690005B68FB60FB687B689B8D19467868FFF749
:1056A000D5FD02E07868FCF731FD002302E000231D
:1056B00000E0022318463037BD4680BD80B584B077
:1056C00000AF78607B681B681B6923F440517B68DE
:1056D000DA687B681B680A431A617B689A687B6892
:1056E0001B691A437B685B691343BB607B681B685B
:1056F000DB6823F4B05323F00C037A681268B968AE
:105700000B43D3607B681B685B6923F440717B6843
:105710009A697B681B680A435A617B681B682C4A3C
:10572000934203D1FEF718FCF86002E0FEF700FC9C
:10573000F860FA6813469B0013449A001A447B6889
:105740005B689B00B2FBF3F3224AA2FB03235B09D5
:105750001901FA6813469B0013449A001A447B68A7
:105760005B689B00B2FBF3F21A4BA3FB02035B09DD
:10577000642000FB03F3D31A1B013233154AA2FB4A
:1057800003235B0903F0F0031944FA6813469B00F6
:1057900013449A001A447B685B689B00B2FBF3F2E7
:1057A0000C4BA3FB02035B09642000FB03F3D31A39
:1057B0001B013233074AA2FB03235B0903F00F02EC
:1057C0007B681B680A449A6000BF1037BD4680BDE5
:1057D000003801401F85EB51002100F003BE0A2272
:1057E000002100F087BE2DE9F0410F46904603F0FE
:1057F00085FD04460D46B8F1000F11D0C7F30A53DA
:10580000C3F16B03002B0BDD00241B0503F17F5557
:1058100005F5401522462B46FAF75EFE04460D4676
:1058200020462946BDE8F0812DE9F04F9FB0179240
:1058300000220C461A924FF0000A4FF0000B0A4665
:105840000590199211782B2948D036D80D2930D8D7
:10585000082930D8002939D000220E92199D2A78C3
:10586000302A40F0B0806A7802F0DF02582A6CD10A
:1058700002930E9B8F4A01931AAB009305981BABC2
:1058800019A902F035FE10F00F06044605D0062EC9
:1058900026D10023013519950E93179B002B40F05C
:1058A00082850E9BBBB150460BF100411FB0BDE895
:1058B000F08F2029D0D10132C3E72D29CCD101218D
:1058C0000E91511C19915278002AC7D1179B199437
:1058D000002B40F0668550465946E7E70021EFE788
:1058E0001A9A3AB135211CA803F0F8FD1A990598C7
:1058F00003F0D8F9013E1B9A042E06D8DFE806F023
:1059000014031D201400DDE91CABE10548BF4BF07A
:10591000004B2BF000431B0D1B05002BBDD101F0EC
:1059200067FE22230360B8E702F23342DDE91CA3DD
:1059300023F4801343EA025BE7E7DFF87CB1E4E796
:105940006FF0004B4FF0FF3ADFE7199B5A1C19929A
:105950005B78302BF9D0002B9FD0012300270A223F
:10596000B9460893199B0B970C9319980578A5F1E4
:105970003003D9B2092928D90122504901F057FD35
:10598000002832D000202A4603464D460A90652A58
:1059900001D0452A14D11DB9089A024396D000259A
:1059A000199C621C199262782B2A7AD02D2A7ED0FB
:1059B0004FF0000CA2F13001092940F285801994C2
:1059C0004FF00008A5E00023C8E7B9F1080FD8BFE1
:1059D0000B9900F10100D6BF02FB013302FB073730
:1059E0000B9309F101091990BFE7199B5A1C1992F1
:1059F0005A78B9F1000F3BD04D460A90A2F130031E
:105A0000092B12D90123C2E7199B01305A1C1992A4
:105A10005A78302AF8D0A2F13103082B00F2C8845A
:105A20000A9000200546199B0C93303A00F10103BF
:105A300018D02E464FF00A0E0A9919440A91711C8B
:105A4000A1EB050C634515DC20EAE0702B18082B50
:105A500005F1010505441ADC0A230B9903FB012318
:105A60000B930023199A1846511C19915278C5E7D7
:105A70004846CEE7082E05DC0B9E0EFB06F60B967D
:105A80000E46DCE71029D8BF0EFB07F7F8E70F2B0F
:105A9000DCBF0A2303FB0727E3E700230A93012364
:105AA0007AE74FF0000CA21C1992A27882E74FF01F
:105AB000010CF8E70CA400080000F07FC6A1000864
:105AC000199A511C19915278302AF9D0A2F131015A
:105AD00008293FF675AF4FF00A08303A0992199A33
